{
  "contractName": "ZombieOwnership",
  "abi": [
    {
      "constant": false,
      "inputs": [
        {
          "name": "_zombieId",
          "type": "uint256"
        }
      ],
      "name": "levelUp",
      "outputs": [],
      "payable": true,
      "stateMutability": "payable",
      "type": "function"
    },
    {
      "constant": false,
      "inputs": [
        {
          "name": "_zombieId",
          "type": "uint256"
        },
        {
          "name": "_kittyId",
          "type": "uint256"
        }
      ],
      "name": "feedOnKitty",
      "outputs": [],
      "payable": false,
      "stateMutability": "nonpayable",
      "type": "function"
    },
    {
      "constant": true,
      "inputs": [
        {
          "name": "",
          "type": "uint256"
        }
      ],
      "name": "zombies",
      "outputs": [
        {
          "name": "name",
          "type": "string"
        },
        {
          "name": "dna",
          "type": "uint256"
        },
        {
          "name": "level",
          "type": "uint32"
        },
        {
          "name": "readyTime",
          "type": "uint32"
        },
        {
          "name": "winCount",
          "type": "uint16"
        },
        {
          "name": "lossCount",
          "type": "uint16"
        }
      ],
      "payable": false,
      "stateMutability": "view",
      "type": "function"
    },
    {
      "constant": false,
      "inputs": [],
      "name": "withdraw",
      "outputs": [],
      "payable": false,
      "stateMutability": "nonpayable",
      "type": "function"
    },
    {
      "constant": true,
      "inputs": [
        {
          "name": "_owner",
          "type": "address"
        }
      ],
      "name": "getZombiesByOwner",
      "outputs": [
        {
          "name": "",
          "type": "uint256[]"
        }
      ],
      "payable": false,
      "stateMutability": "view",
      "type": "function"
    },
    {
      "constant": true,
      "inputs": [
        {
          "name": "",
          "type": "uint256"
        }
      ],
      "name": "zombieToOwner",
      "outputs": [
        {
          "name": "",
          "type": "address"
        }
      ],
      "payable": false,
      "stateMutability": "view",
      "type": "function"
    },
    {
      "constant": false,
      "inputs": [
        {
          "name": "_address",
          "type": "address"
        }
      ],
      "name": "setKittyContractAddress",
      "outputs": [],
      "payable": false,
      "stateMutability": "nonpayable",
      "type": "function"
    },
    {
      "constant": false,
      "inputs": [
        {
          "name": "_zombieId",
          "type": "uint256"
        },
        {
          "name": "_newDna",
          "type": "uint256"
        }
      ],
      "name": "changeDna",
      "outputs": [],
      "payable": false,
      "stateMutability": "nonpayable",
      "type": "function"
    },
    {
      "constant": false,
      "inputs": [],
      "name": "renounceOwnership",
      "outputs": [],
      "payable": false,
      "stateMutability": "nonpayable",
      "type": "function"
    },
    {
      "constant": false,
      "inputs": [
        {
          "name": "_name",
          "type": "string"
        }
      ],
      "name": "createRandomZombie",
      "outputs": [],
      "payable": false,
      "stateMutability": "nonpayable",
      "type": "function"
    },
    {
      "constant": true,
      "inputs": [],
      "name": "owner",
      "outputs": [
        {
          "name": "",
          "type": "address"
        }
      ],
      "payable": false,
      "stateMutability": "view",
      "type": "function"
    },
    {
      "constant": true,
      "inputs": [],
      "name": "isOwner",
      "outputs": [
        {
          "name": "",
          "type": "bool"
        }
      ],
      "payable": false,
      "stateMutability": "view",
      "type": "function"
    },
    {
      "constant": false,
      "inputs": [
        {
          "name": "_zombieId",
          "type": "uint256"
        },
        {
          "name": "_newName",
          "type": "string"
        }
      ],
      "name": "changeName",
      "outputs": [],
      "payable": false,
      "stateMutability": "nonpayable",
      "type": "function"
    },
    {
      "constant": false,
      "inputs": [
        {
          "name": "_fee",
          "type": "uint256"
        }
      ],
      "name": "setLevelUpFee",
      "outputs": [],
      "payable": false,
      "stateMutability": "nonpayable",
      "type": "function"
    },
    {
      "constant": false,
      "inputs": [
        {
          "name": "_zombieId",
          "type": "uint256"
        }
      ],
      "name": "levelDown",
      "outputs": [],
      "payable": true,
      "stateMutability": "payable",
      "type": "function"
    },
    {
      "constant": false,
      "inputs": [
        {
          "name": "_zombieId",
          "type": "uint256"
        },
        {
          "name": "_targetId",
          "type": "uint256"
        }
      ],
      "name": "attack",
      "outputs": [],
      "payable": false,
      "stateMutability": "nonpayable",
      "type": "function"
    },
    {
      "constant": false,
      "inputs": [
        {
          "name": "newOwner",
          "type": "address"
        }
      ],
      "name": "transferOwnership",
      "outputs": [],
      "payable": false,
      "stateMutability": "nonpayable",
      "type": "function"
    },
    {
      "anonymous": false,
      "inputs": [
        {
          "indexed": true,
          "name": "_from",
          "type": "address"
        },
        {
          "indexed": true,
          "name": "_to",
          "type": "address"
        },
        {
          "indexed": true,
          "name": "_tokenId",
          "type": "uint256"
        }
      ],
      "name": "Transfer",
      "type": "event"
    },
    {
      "anonymous": false,
      "inputs": [
        {
          "indexed": true,
          "name": "_owner",
          "type": "address"
        },
        {
          "indexed": true,
          "name": "_approved",
          "type": "address"
        },
        {
          "indexed": true,
          "name": "_tokenId",
          "type": "uint256"
        }
      ],
      "name": "Approval",
      "type": "event"
    },
    {
      "anonymous": false,
      "inputs": [
        {
          "indexed": false,
          "name": "zombieId",
          "type": "uint256"
        },
        {
          "indexed": false,
          "name": "name",
          "type": "string"
        },
        {
          "indexed": false,
          "name": "dna",
          "type": "uint256"
        }
      ],
      "name": "NewZombie",
      "type": "event"
    },
    {
      "anonymous": false,
      "inputs": [
        {
          "indexed": true,
          "name": "previousOwner",
          "type": "address"
        },
        {
          "indexed": true,
          "name": "newOwner",
          "type": "address"
        }
      ],
      "name": "OwnershipTransferred",
      "type": "event"
    },
    {
      "constant": true,
      "inputs": [
        {
          "name": "_owner",
          "type": "address"
        }
      ],
      "name": "balanceOf",
      "outputs": [
        {
          "name": "",
          "type": "uint256"
        }
      ],
      "payable": false,
      "stateMutability": "view",
      "type": "function"
    },
    {
      "constant": true,
      "inputs": [
        {
          "name": "_tokenId",
          "type": "uint256"
        }
      ],
      "name": "ownerOf",
      "outputs": [
        {
          "name": "",
          "type": "address"
        }
      ],
      "payable": false,
      "stateMutability": "view",
      "type": "function"
    },
    {
      "constant": false,
      "inputs": [
        {
          "name": "_from",
          "type": "address"
        },
        {
          "name": "_to",
          "type": "address"
        },
        {
          "name": "_tokenId",
          "type": "uint256"
        }
      ],
      "name": "transferFrom",
      "outputs": [],
      "payable": true,
      "stateMutability": "payable",
      "type": "function"
    },
    {
      "constant": false,
      "inputs": [
        {
          "name": "_approved",
          "type": "address"
        },
        {
          "name": "_tokenId",
          "type": "uint256"
        }
      ],
      "name": "approve",
      "outputs": [],
      "payable": true,
      "stateMutability": "payable",
      "type": "function"
    }
  ],
  "bytecode": "0x60806040526010600155600154600a0a6002556201518060035566038d7ea4c6800060085560006009556046600a55336000806101000a81548173ffffffffffffffffffffffffffffffffffffffff021916908373ffffffffffffffffffffffffffffffffffffffff1602179055506000809054906101000a900473ffffffffffffffffffffffffffffffffffffffff1673ffffffffffffffffffffffffffffffffffffffff16600073ffffffffffffffffffffffffffffffffffffffff167f8be0079c531659141344cd1fd0a4f28419497f9722a3daafe3b4186f6b6457e060405160405180910390a361233d806100f96000396000f30060806040526004361061011d576000357c0100000000000000000000000000000000000000000000000000000000900463ffffffff168063095ea7b3146101225780630ce90ec21461016257806317a7f4cc146101825780632052465e146101b957806323b872dd146102aa5780633ccfd60b1461030a5780634412e10414610321578063528b7b8f146103b95780635f4623f1146104265780635faf2880146104695780636352211e146104a057806370a082311461050d578063715018a6146105645780637bff0a011461057b5780638da5cb5b146105e45780638f32d59b1461063b578063c39cbef11461066a578063ccf670f8146106af578063e14d2cee146106dc578063e1fa7638146106fc578063f2fde38b14610733575b600080fd5b610160600480360381019080803573ffffffffffffffffffffffffffffffffffffffff16906020019092919080359060200190929190505050610776565b005b61018060048036038101908080359060200190929190505050610896565b005b34801561018e57600080fd5b506101b76004803603810190808035906020019092919080359060200190929190505050610931565b005b3480156101c557600080fd5b506101e460048036038101908080359060200190929190505050610ada565b60405180806020018781526020018663ffffffff1663ffffffff1681526020018563ffffffff1663ffffffff1681526020018461ffff1661ffff1681526020018361ffff1661ffff168152602001828103825288818151815260200191508051906020019080838360005b8381101561026a57808201518184015260208101905061024f565b50505050905090810190601f1680156102975780820380516001836020036101000a031916815260200191505b5097505050505050505060405180910390f35b610308600480360381019080803573ffffffffffffffffffffffffffffffffffffffff169060200190929190803573ffffffffffffffffffffffffffffffffffffffff16906020019092919080359060200190929190505050610bf9565b005b34801561031657600080fd5b5061031f610cdf565b005b34801561032d57600080fd5b50610362600480360381019080803573ffffffffffffffffffffffffffffffffffffffff169060200190929190505050610d5f565b6040518080602001828103825283818151815260200191508051906020019060200280838360005b838110156103a557808201518184015260208101905061038a565b505050509050019250505060405180910390f35b3480156103c557600080fd5b506103e460048036038101908080359060200190929190505050610e91565b604051808273ffffffffffffffffffffffffffffffffffffffff1673ffffffffffffffffffffffffffffffffffffffff16815260200191505060405180910390f35b34801561043257600080fd5b50610467600480360381019080803573ffffffffffffffffffffffffffffffffffffffff169060200190929190505050610ec4565b005b34801561047557600080fd5b5061049e6004803603810190808035906020019092919080359060200190929190505050610f1b565b005b3480156104ac57600080fd5b506104cb60048036038101908080359060200190929190505050610ffd565b604051808273ffffffffffffffffffffffffffffffffffffffff1673ffffffffffffffffffffffffffffffffffffffff16815260200191505060405180910390f35b34801561051957600080fd5b5061054e600480360381019080803573ffffffffffffffffffffffffffffffffffffffff16906020019092919050505061103a565b6040518082815260200191505060405180910390f35b34801561057057600080fd5b50610579611083565b005b34801561058757600080fd5b506105e2600480360381019080803590602001908201803590602001908080601f0160208091040260200160405190810160405280939291908181526020018383808284378201915050505050509192919290505050611155565b005b3480156105f057600080fd5b506105f96111ce565b604051808273ffffffffffffffffffffffffffffffffffffffff1673ffffffffffffffffffffffffffffffffffffffff16815260200191505060405180910390f35b34801561064757600080fd5b506106506111f7565b604051808215151515815260200191505060405180910390f35b34801561067657600080fd5b506106ad6004803603810190808035906020019092919080359060200190820180359060200191909192939192939050505061124e565b005b3480156106bb57600080fd5b506106da6004803603810190808035906020019092919050505061133c565b005b6106fa60048036038101908080359060200190929190505050611359565b005b34801561070857600080fd5b5061073160048036038101908080359060200190929190803590602001909291905050506113f4565b005b34801561073f57600080fd5b50610774600480360381019080803573ffffffffffffffffffffffffffffffffffffffff169060200190929190505050611687565b005b806005600082815260200190815260200160002060009054906101000a900473ffffffffffffffffffffffffffffffffffffffff1673ffffffffffffffffffffffffffffffffffffffff163373ffffffffffffffffffffffffffffffffffffffff161415156107e457600080fd5b82600b600084815260200190815260200160002060006101000a81548173ffffffffffffffffffffffffffffffffffffffff021916908373ffffffffffffffffffffffffffffffffffffffff160217905550818373ffffffffffffffffffffffffffffffffffffffff163373ffffffffffffffffffffffffffffffffffffffff167f8c5be1e5ebec7d5bd14f71427d1e84f3dd0314c0f7b2291e5b200ac8c7c3b92560405160405180910390a4505050565b600854341415156108a657600080fd5b6108f060016004838154811015156108ba57fe5b906000526020600020906003020160020160009054906101000a900463ffffffff1663ffffffff166116a690919063ffffffff16565b6004828154811015156108ff57fe5b906000526020600020906003020160020160006101000a81548163ffffffff021916908363ffffffff16021790555050565b6000600760009054906101000a900473ffffffffffffffffffffffffffffffffffffffff1673ffffffffffffffffffffffffffffffffffffffff1663e98b7f4d836040518263ffffffff167c01000000000000000000000000000000000000000000000000000000000281526004018082815260200191505061014060405180830381600087803b1580156109c557600080fd5b505af11580156109d9573d6000803e3d6000fd5b505050506040513d6101408110156109f057600080fd5b810190808051906020019092919080519060200190929190805190602001909291908051906020019092919080519060200190929190805190602001909291908051906020019092919080519060200190929190805190602001909291908051906020019092919050505090919293949596979850909192939495969750909192939495965090919293949550909192939450909192935090919250909150905080915050610ad583826040805190810160405280600581526020017f6b697474790000000000000000000000000000000000000000000000000000008152506116d0565b505050565b600481815481101515610ae957fe5b9060005260206000209060030201600091509050806000018054600181600116156101000203166002900480601f016020809104026020016040519081016040528092919081815260200182805460018160011615610100020316600290048015610b955780601f10610b6a57610100808354040283529160200191610b95565b820191906000526020600020905b815481529060010190602001808311610b7857829003601f168201915b5050505050908060010154908060020160009054906101000a900463ffffffff16908060020160049054906101000a900463ffffffff16908060020160089054906101000a900461ffff169080600201600a9054906101000a900461ffff16905086565b3373ffffffffffffffffffffffffffffffffffffffff166005600083815260200190815260200160002060009054906101000a900473ffffffffffffffffffffffffffffffffffffffff1673ffffffffffffffffffffffffffffffffffffffff161480610cc457503373ffffffffffffffffffffffffffffffffffffffff16600b600083815260200190815260200160002060009054906101000a900473ffffffffffffffffffffffffffffffffffffffff1673ffffffffffffffffffffffffffffffffffffffff16145b1515610ccf57600080fd5b610cda83838361197d565b505050565b6000610ce96111f7565b1515610cf457600080fd5b610cfc6111ce565b90508073ffffffffffffffffffffffffffffffffffffffff166108fc3073ffffffffffffffffffffffffffffffffffffffff16319081150290604051600060405180830381858888f19350505050158015610d5b573d6000803e3d6000fd5b5050565b606080600080600660008673ffffffffffffffffffffffffffffffffffffffff1673ffffffffffffffffffffffffffffffffffffffff16815260200190815260200160002054604051908082528060200260200182016040528015610dd35781602001602082028038833980820191505090505b50925060009150600090505b600480549050811015610e86578473ffffffffffffffffffffffffffffffffffffffff166005600083815260200190815260200160002060009054906101000a900473ffffffffffffffffffffffffffffffffffffffff1673ffffffffffffffffffffffffffffffffffffffff161415610e7957808383815181101515610e6257fe5b906020019060200201818152505081806001019250505b8080600101915050610ddf565b829350505050919050565b60056020528060005260406000206000915054906101000a900473ffffffffffffffffffffffffffffffffffffffff1681565b610ecc6111f7565b1515610ed757600080fd5b80600760006101000a81548173ffffffffffffffffffffffffffffffffffffffff021916908373ffffffffffffffffffffffffffffffffffffffff16021790555050565b60148281600482815481101515610f2e57fe5b906000526020600020906003020160020160009054906101000a900463ffffffff1663ffffffff1610151515610f6357600080fd5b836005600082815260200190815260200160002060009054906101000a900473ffffffffffffffffffffffffffffffffffffffff1673ffffffffffffffffffffffffffffffffffffffff163373ffffffffffffffffffffffffffffffffffffffff16141515610fd157600080fd5b83600486815481101515610fe157fe5b9060005260206000209060030201600101819055505050505050565b60006005600083815260200190815260200160002060009054906101000a900473ffffffffffffffffffffffffffffffffffffffff169050919050565b6000600660008373ffffffffffffffffffffffffffffffffffffffff1673ffffffffffffffffffffffffffffffffffffffff168152602001908152602001600020549050919050565b61108b6111f7565b151561109657600080fd5b600073ffffffffffffffffffffffffffffffffffffffff166000809054906101000a900473ffffffffffffffffffffffffffffffffffffffff1673ffffffffffffffffffffffffffffffffffffffff167f8be0079c531659141344cd1fd0a4f28419497f9722a3daafe3b4186f6b6457e060405160405180910390a360008060006101000a81548173ffffffffffffffffffffffffffffffffffffffff021916908373ffffffffffffffffffffffffffffffffffffffff160217905550565b600060068060003373ffffffffffffffffffffffffffffffffffffffff1673ffffffffffffffffffffffffffffffffffffffff168152602001908152602001600020541015156111a457600080fd5b6111ad82611b5b565b90506064818115156111bb57fe5b06810390506111ca8282611c49565b5050565b60008060009054906101000a900473ffffffffffffffffffffffffffffffffffffffff16905090565b60008060009054906101000a900473ffffffffffffffffffffffffffffffffffffffff1673ffffffffffffffffffffffffffffffffffffffff163373ffffffffffffffffffffffffffffffffffffffff1614905090565b6002838160048281548110151561126157fe5b906000526020600020906003020160020160009054906101000a900463ffffffff1663ffffffff161015151561129657600080fd5b846005600082815260200190815260200160002060009054906101000a900473ffffffffffffffffffffffffffffffffffffffff1673ffffffffffffffffffffffffffffffffffffffff163373ffffffffffffffffffffffffffffffffffffffff1614151561130457600080fd5b848460048881548110151561131557fe5b906000526020600020906003020160000191906113339291906121ec565b50505050505050565b6113446111f7565b151561134f57600080fd5b8060088190555050565b6008543414151561136957600080fd5b6113b3600160048381548110151561137d57fe5b906000526020600020906003020160020160009054906101000a900463ffffffff1663ffffffff16611f1c90919063ffffffff16565b6004828154811015156113c257fe5b906000526020600020906003020160020160006101000a81548163ffffffff021916908363ffffffff16021790555050565b6000806000846005600082815260200190815260200160002060009054906101000a900473ffffffffffffffffffffffffffffffffffffffff1673ffffffffffffffffffffffffffffffffffffffff163373ffffffffffffffffffffffffffffffffffffffff1614151561146757600080fd5b60048681548110151561147657fe5b9060005260206000209060030201935060048581548110151561149557fe5b906000526020600020906003020192506114af6064611f41565b9150600a54821115156115e5576114e660018560020160089054906101000a900461ffff1661ffff1661204490919063ffffffff16565b8460020160086101000a81548161ffff021916908361ffff16021790555061153260018560020160009054906101000a900463ffffffff1663ffffffff166116a690919063ffffffff16565b8460020160006101000a81548163ffffffff021916908363ffffffff16021790555061157e600184600201600a9054906101000a900461ffff1661ffff1661204490919063ffffffff16565b83600201600a6101000a81548161ffff021916908361ffff1602179055506115e08684600101546040805190810160405280600681526020017f7a6f6d62696500000000000000000000000000000000000000000000000000008152506116d0565b61167f565b61160f600185600201600a9054906101000a900461ffff1661ffff1661204490919063ffffffff16565b84600201600a6101000a81548161ffff021916908361ffff16021790555061165760018460020160089054906101000a900461ffff1661ffff1661204490919063ffffffff16565b8360020160086101000a81548161ffff021916908361ffff16021790555061167e8461206a565b5b505050505050565b61168f6111f7565b151561169a57600080fd5b6116a381612094565b50565b60008082840190508363ffffffff168163ffffffff16101515156116c657fe5b8091505092915050565b600080846005600082815260200190815260200160002060009054906101000a900473ffffffffffffffffffffffffffffffffffffffff1673ffffffffffffffffffffffffffffffffffffffff163373ffffffffffffffffffffffffffffffffffffffff1614151561174157600080fd5b60048681548110151561175057fe5b906000526020600020906003020192506117698361218e565b151561177457600080fd5b6002548581151561178157fe5b06945060028584600101540181151561179657fe5b04915060405160200180807f6b6974747900000000000000000000000000000000000000000000000000000081525060050190506040516020818303038152906040526040518082805190602001908083835b60208310151561180e57805182526020820191506020810190506020830392506117e9565b6001836020036101000a038019825116818451168082178552505050505050905001915050604051809103902060001916846040516020018082805190602001908083835b6020831015156118785780518252602082019150602081019050602083039250611853565b6001836020036101000a0380198251168184511680821785525050505050509050019150506040516020818303038152906040526040518082805190602001908083835b6020831015156118e157805182526020820191506020810190506020830392506118bc565b6001836020036101000a038019825116818451168082178552505050505050905001915050604051809103902060001916141561192d57606360648381151561192657fe5b0683030191505b61196c6040805190810160405280600681526020017f4e6f4e616d65000000000000000000000000000000000000000000000000000081525083611c49565b6119758361206a565b505050505050565b6119d06001600660008573ffffffffffffffffffffffffffffffffffffffff1673ffffffffffffffffffffffffffffffffffffffff168152602001908152602001600020546121b590919063ffffffff16565b600660008473ffffffffffffffffffffffffffffffffffffffff1673ffffffffffffffffffffffffffffffffffffffff16815260200190815260200160002081905550611a666001600660003373ffffffffffffffffffffffffffffffffffffffff1673ffffffffffffffffffffffffffffffffffffffff168152602001908152602001600020546121d390919063ffffffff16565b600660003373ffffffffffffffffffffffffffffffffffffffff1673ffffffffffffffffffffffffffffffffffffffff16815260200190815260200160002081905550816005600083815260200190815260200160002060006101000a81548173ffffffffffffffffffffffffffffffffffffffff021916908373ffffffffffffffffffffffffffffffffffffffff160217905550808273ffffffffffffffffffffffffffffffffffffffff168473ffffffffffffffffffffffffffffffffffffffff167fddf252ad1be2c89b69c2b068fc378daa952ba7f163c4a11628f55a4df523b3ef60405160405180910390a4505050565b600080826040516020018082805190602001908083835b602083101515611b975780518252602082019150602081019050602083039250611b72565b6001836020036101000a0380198251168184511680821785525050505050509050019150506040516020818303038152906040526040518082805190602001908083835b602083101515611c005780518252602082019150602081019050602083039250611bdb565b6001836020036101000a038019825116818451168082178552505050505050905001915050604051809103902060019004905060025481811515611c4057fe5b06915050919050565b60006001600460c060405190810160405280868152602001858152602001600163ffffffff168152602001600354420163ffffffff168152602001600061ffff168152602001600061ffff16815250908060018154018082558091505090600182039060005260206000209060030201600090919290919091506000820151816000019080519060200190611cdf92919061226c565b506020820151816001015560408201518160020160006101000a81548163ffffffff021916908363ffffffff16021790555060608201518160020160046101000a81548163ffffffff021916908363ffffffff16021790555060808201518160020160086101000a81548161ffff021916908361ffff16021790555060a082015181600201600a6101000a81548161ffff021916908361ffff1602179055505050039050336005600083815260200190815260200160002060006101000a81548173ffffffffffffffffffffffffffffffffffffffff021916908373ffffffffffffffffffffffffffffffffffffffff160217905550611e286001600660003373ffffffffffffffffffffffffffffffffffffffff1673ffffffffffffffffffffffffffffffffffffffff168152602001908152602001600020546121b590919063ffffffff16565b600660003373ffffffffffffffffffffffffffffffffffffffff1673ffffffffffffffffffffffffffffffffffffffff168152602001908152602001600020819055507f88f026aacbbecc90c18411df4b1185fd8d9be2470f1962f192bf84a27d0704b78184846040518084815260200180602001838152602001828103825284818151815260200191508051906020019080838360005b83811015611edb578082015181840152602081019050611ec0565b50505050905090810190601f168015611f085780820380516001836020036101000a031916815260200191505b5094505050505060405180910390a1505050565b60008263ffffffff168263ffffffff1611151515611f3657fe5b818303905092915050565b6000611f5960016009546121b590919063ffffffff16565b600981905550814233600954604051602001808481526020018373ffffffffffffffffffffffffffffffffffffffff1673ffffffffffffffffffffffffffffffffffffffff166c0100000000000000000000000002815260140182815260200193505050506040516020818303038152906040526040518082805190602001908083835b6020831015156120025780518252602082019150602081019050602083039250611fdd565b6001836020036101000a03801982511681845116808217855250505050505090500191505060405180910390206001900481151561203c57fe5b069050919050565b60008082840190508361ffff168161ffff161015151561206057fe5b8091505092915050565b60035442018160020160046101000a81548163ffffffff021916908363ffffffff16021790555050565b600073ffffffffffffffffffffffffffffffffffffffff168173ffffffffffffffffffffffffffffffffffffffff16141515156120d057600080fd5b8073ffffffffffffffffffffffffffffffffffffffff166000809054906101000a900473ffffffffffffffffffffffffffffffffffffffff1673ffffffffffffffffffffffffffffffffffffffff167f8be0079c531659141344cd1fd0a4f28419497f9722a3daafe3b4186f6b6457e060405160405180910390a3806000806101000a81548173ffffffffffffffffffffffffffffffffffffffff021916908373ffffffffffffffffffffffffffffffffffffffff16021790555050565b6000428260020160049054906101000a900463ffffffff1663ffffffff1611159050919050565b60008082840190508381101515156121c957fe5b8091505092915050565b60008282111515156121e157fe5b818303905092915050565b828054600181600116156101000203166002900490600052602060002090601f016020900481019282601f1061222d57803560ff191683800117855561225b565b8280016001018555821561225b579182015b8281111561225a57823582559160200191906001019061223f565b5b50905061226891906122ec565b5090565b828054600181600116156101000203166002900490600052602060002090601f016020900481019282601f106122ad57805160ff19168380011785556122db565b828001600101855582156122db579182015b828111156122da5782518255916020019190600101906122bf565b5b5090506122e891906122ec565b5090565b61230e91905b8082111561230a5760008160009055506001016122f2565b5090565b905600a165627a7a723058201ed9ac5fecbd58a3ab0a113a917e01f53ae866ffa73e1630e4ac97ed11af089c0029",
  "source": "pragma solidity ^0.4.25;\n\nimport \"./zombieattack.sol\";\nimport \"./erc721.sol\";\nimport \"./safemath.sol\";\n\ncontract ZombieOwnership is ZombieAttack, ERC721 {\n\n  using SafeMath for uint256;\n\n  mapping (uint => address) zombieApprovals;\n\n  function balanceOf(address _owner) external view returns (uint256) {\n    return ownerZombieCount[_owner];\n  }\n\n  function ownerOf(uint256 _tokenId) external view returns (address) {\n    return zombieToOwner[_tokenId];\n  }\n\n  function _transfer(address _from, address _to, uint256 _tokenId) private {\n    ownerZombieCount[_to] = ownerZombieCount[_to].add(1);\n    ownerZombieCount[msg.sender] = ownerZombieCount[msg.sender].sub(1);\n    zombieToOwner[_tokenId] = _to;\n    emit Transfer(_from, _to, _tokenId);\n  }\n\n  function transferFrom(address _from, address _to, uint256 _tokenId) external payable {\n      require (zombieToOwner[_tokenId] == msg.sender || zombieApprovals[_tokenId] == msg.sender);\n      _transfer(_from, _to, _tokenId);\n    }\n\n  function approve(address _approved, uint256 _tokenId) external payable onlyOwnerOf(_tokenId) {\n      zombieApprovals[_tokenId] = _approved;\n      emit Approval(msg.sender, _approved, _tokenId);\n    }\n\n}\n",
  "sourcePath": "/Users/Abhinav/Desktop/559/midterm/BlockChain-Midterm/contracts/zombieownership.sol",
  "compiler": {
    "name": "solc",
    "version": "0.4.25+commit.59dbf8f1.Emscripten.clang"
  },
  "schemaVersion": "3.4.16",
  "updatedAt": "2024-03-18T06:11:03.157Z",
  "networkType": "ethereum",
  "devdoc": {
    "methods": {
      "isOwner()": {
        "return": "true if `msg.sender` is the owner of the contract."
      },
      "owner()": {
        "return": "the address of the owner."
      },
      "renounceOwnership()": {
        "details": "Allows the current owner to relinquish control of the contract."
      },
      "transferOwnership(address)": {
        "details": "Allows the current owner to transfer control of the contract to a newOwner.",
        "params": {
          "newOwner": "The address to transfer ownership to."
        }
      }
    }
  },
  "userdoc": {
    "methods": {
      "renounceOwnership()": {
        "notice": "Renouncing to ownership will leave the contract without an owner. It will not be possible to call the functions with the `onlyOwner` modifier anymore."
      }
    }
  }
}